{
  "_format": "hh3-artifact-1",
  "contractName": "CampusCreditV2",
  "sourceName": "contracts/CampusCreditV2.sol",
  "abi": [
    {
      "inputs": [
        {
          "internalType": "string",
          "name": "name_",
          "type": "string"
        },
        {
          "internalType": "string",
          "name": "symbol_",
          "type": "string"
        },
        {
          "internalType": "uint256",
          "name": "cap_",
          "type": "uint256"
        },
        {
          "internalType": "address",
          "name": "initialReceiver",
          "type": "address"
        },
        {
          "internalType": "uint256",
          "name": "initialMint",
          "type": "uint256"
        }
      ],
      "stateMutability": "nonpayable",
      "type": "constructor"
    },
    {
      "inputs": [],
      "name": "AccessControlBadConfirmation",
      "type": "error"
    },
    {
      "inputs": [
        {
          "internalType": "address",
          "name": "account",
          "type": "address"
        },
        {
          "internalType": "bytes32",
          "name": "neededRole",
          "type": "bytes32"
        }
      ],
      "name": "AccessControlUnauthorizedAccount",
      "type": "error"
    },
    {
      "inputs": [],
      "name": "ArrayLengthMismatch",
      "type": "error"
    },
    {
      "inputs": [],
      "name": "CapExceeded",
      "type": "error"
    },
    {
      "inputs": [
        {
          "internalType": "uint256",
          "name": "increasedSupply",
          "type": "uint256"
        },
        {
          "internalType": "uint256",
          "name": "cap",
          "type": "uint256"
        }
      ],
      "name": "ERC20ExceededCap",
      "type": "error"
    },
    {
      "inputs": [
        {
          "internalType": "address",
          "name": "spender",
          "type": "address"
        },
        {
          "internalType": "uint256",
          "name": "allowance",
          "type": "uint256"
        },
        {
          "internalType": "uint256",
          "name": "needed",
          "type": "uint256"
        }
      ],
      "name": "ERC20InsufficientAllowance",
      "type": "error"
    },
    {
      "inputs": [
        {
          "internalType": "address",
          "name": "sender",
          "type": "address"
        },
        {
          "internalType": "uint256",
          "name": "balance",
          "type": "uint256"
        },
        {
          "internalType": "uint256",
          "name": "needed",
          "type": "uint256"
        }
      ],
      "name": "ERC20InsufficientBalance",
      "type": "error"
    },
    {
      "inputs": [
        {
          "internalType": "address",
          "name": "approver",
          "type": "address"
        }
      ],
      "name": "ERC20InvalidApprover",
      "type": "error"
    },
    {
      "inputs": [
        {
          "internalType": "uint256",
          "name": "cap",
          "type": "uint256"
        }
      ],
      "name": "ERC20InvalidCap",
      "type": "error"
    },
    {
      "inputs": [
        {
          "internalType": "address",
          "name": "receiver",
          "type": "address"
        }
      ],
      "name": "ERC20InvalidReceiver",
      "type": "error"
    },
    {
      "inputs": [
        {
          "internalType": "address",
          "name": "sender",
          "type": "address"
        }
      ],
      "name": "ERC20InvalidSender",
      "type": "error"
    },
    {
      "inputs": [
        {
          "internalType": "address",
          "name": "spender",
          "type": "address"
        }
      ],
      "name": "ERC20InvalidSpender",
      "type": "error"
    },
    {
      "inputs": [],
      "name": "EnforcedPause",
      "type": "error"
    },
    {
      "inputs": [],
      "name": "ExpectedPause",
      "type": "error"
    },
    {
      "anonymous": false,
      "inputs": [
        {
          "indexed": true,
          "internalType": "address",
          "name": "owner",
          "type": "address"
        },
        {
          "indexed": true,
          "internalType": "address",
          "name": "spender",
          "type": "address"
        },
        {
          "indexed": false,
          "internalType": "uint256",
          "name": "value",
          "type": "uint256"
        }
      ],
      "name": "Approval",
      "type": "event"
    },
    {
      "anonymous": false,
      "inputs": [
        {
          "indexed": false,
          "internalType": "address",
          "name": "account",
          "type": "address"
        }
      ],
      "name": "Paused",
      "type": "event"
    },
    {
      "anonymous": false,
      "inputs": [
        {
          "indexed": true,
          "internalType": "bytes32",
          "name": "role",
          "type": "bytes32"
        },
        {
          "indexed": true,
          "internalType": "bytes32",
          "name": "previousAdminRole",
          "type": "bytes32"
        },
        {
          "indexed": true,
          "internalType": "bytes32",
          "name": "newAdminRole",
          "type": "bytes32"
        }
      ],
      "name": "RoleAdminChanged",
      "type": "event"
    },
    {
      "anonymous": false,
      "inputs": [
        {
          "indexed": true,
          "internalType": "bytes32",
          "name": "role",
          "type": "bytes32"
        },
        {
          "indexed": true,
          "internalType": "address",
          "name": "account",
          "type": "address"
        },
        {
          "indexed": true,
          "internalType": "address",
          "name": "sender",
          "type": "address"
        }
      ],
      "name": "RoleGranted",
      "type": "event"
    },
    {
      "anonymous": false,
      "inputs": [
        {
          "indexed": true,
          "internalType": "bytes32",
          "name": "role",
          "type": "bytes32"
        },
        {
          "indexed": true,
          "internalType": "address",
          "name": "account",
          "type": "address"
        },
        {
          "indexed": true,
          "internalType": "address",
          "name": "sender",
          "type": "address"
        }
      ],
      "name": "RoleRevoked",
      "type": "event"
    },
    {
      "anonymous": false,
      "inputs": [
        {
          "indexed": true,
          "internalType": "address",
          "name": "from",
          "type": "address"
        },
        {
          "indexed": true,
          "internalType": "address",
          "name": "to",
          "type": "address"
        },
        {
          "indexed": false,
          "internalType": "uint256",
          "name": "value",
          "type": "uint256"
        }
      ],
      "name": "Transfer",
      "type": "event"
    },
    {
      "anonymous": false,
      "inputs": [
        {
          "indexed": false,
          "internalType": "address",
          "name": "account",
          "type": "address"
        }
      ],
      "name": "Unpaused",
      "type": "event"
    },
    {
      "inputs": [],
      "name": "DEFAULT_ADMIN_ROLE",
      "outputs": [
        {
          "internalType": "bytes32",
          "name": "",
          "type": "bytes32"
        }
      ],
      "stateMutability": "view",
      "type": "function"
    },
    {
      "inputs": [],
      "name": "MINTER_ROLE",
      "outputs": [
        {
          "internalType": "bytes32",
          "name": "",
          "type": "bytes32"
        }
      ],
      "stateMutability": "view",
      "type": "function"
    },
    {
      "inputs": [],
      "name": "PAUSER_ROLE",
      "outputs": [
        {
          "internalType": "bytes32",
          "name": "",
          "type": "bytes32"
        }
      ],
      "stateMutability": "view",
      "type": "function"
    },
    {
      "inputs": [
        {
          "internalType": "address[]",
          "name": "to",
          "type": "address[]"
        },
        {
          "internalType": "uint256[]",
          "name": "amounts",
          "type": "uint256[]"
        }
      ],
      "name": "airdrop",
      "outputs": [],
      "stateMutability": "nonpayable",
      "type": "function"
    },
    {
      "inputs": [
        {
          "internalType": "address",
          "name": "owner",
          "type": "address"
        },
        {
          "internalType": "address",
          "name": "spender",
          "type": "address"
        }
      ],
      "name": "allowance",
      "outputs": [
        {
          "internalType": "uint256",
          "name": "",
          "type": "uint256"
        }
      ],
      "stateMutability": "view",
      "type": "function"
    },
    {
      "inputs": [
        {
          "internalType": "address",
          "name": "spender",
          "type": "address"
        },
        {
          "internalType": "uint256",
          "name": "value",
          "type": "uint256"
        }
      ],
      "name": "approve",
      "outputs": [
        {
          "internalType": "bool",
          "name": "",
          "type": "bool"
        }
      ],
      "stateMutability": "nonpayable",
      "type": "function"
    },
    {
      "inputs": [
        {
          "internalType": "address",
          "name": "account",
          "type": "address"
        }
      ],
      "name": "balanceOf",
      "outputs": [
        {
          "internalType": "uint256",
          "name": "",
          "type": "uint256"
        }
      ],
      "stateMutability": "view",
      "type": "function"
    },
    {
      "inputs": [
        {
          "internalType": "uint256",
          "name": "value",
          "type": "uint256"
        }
      ],
      "name": "burn",
      "outputs": [],
      "stateMutability": "nonpayable",
      "type": "function"
    },
    {
      "inputs": [
        {
          "internalType": "address",
          "name": "account",
          "type": "address"
        },
        {
          "internalType": "uint256",
          "name": "value",
          "type": "uint256"
        }
      ],
      "name": "burnFrom",
      "outputs": [],
      "stateMutability": "nonpayable",
      "type": "function"
    },
    {
      "inputs": [],
      "name": "cap",
      "outputs": [
        {
          "internalType": "uint256",
          "name": "",
          "type": "uint256"
        }
      ],
      "stateMutability": "view",
      "type": "function"
    },
    {
      "inputs": [],
      "name": "decimals",
      "outputs": [
        {
          "internalType": "uint8",
          "name": "",
          "type": "uint8"
        }
      ],
      "stateMutability": "view",
      "type": "function"
    },
    {
      "inputs": [
        {
          "internalType": "bytes32",
          "name": "role",
          "type": "bytes32"
        }
      ],
      "name": "getRoleAdmin",
      "outputs": [
        {
          "internalType": "bytes32",
          "name": "",
          "type": "bytes32"
        }
      ],
      "stateMutability": "view",
      "type": "function"
    },
    {
      "inputs": [
        {
          "internalType": "bytes32",
          "name": "role",
          "type": "bytes32"
        },
        {
          "internalType": "address",
          "name": "account",
          "type": "address"
        }
      ],
      "name": "grantRole",
      "outputs": [],
      "stateMutability": "nonpayable",
      "type": "function"
    },
    {
      "inputs": [
        {
          "internalType": "bytes32",
          "name": "role",
          "type": "bytes32"
        },
        {
          "internalType": "address",
          "name": "account",
          "type": "address"
        }
      ],
      "name": "hasRole",
      "outputs": [
        {
          "internalType": "bool",
          "name": "",
          "type": "bool"
        }
      ],
      "stateMutability": "view",
      "type": "function"
    },
    {
      "inputs": [
        {
          "internalType": "address",
          "name": "to",
          "type": "address"
        },
        {
          "internalType": "uint256",
          "name": "amount",
          "type": "uint256"
        }
      ],
      "name": "mint",
      "outputs": [],
      "stateMutability": "nonpayable",
      "type": "function"
    },
    {
      "inputs": [],
      "name": "name",
      "outputs": [
        {
          "internalType": "string",
          "name": "",
          "type": "string"
        }
      ],
      "stateMutability": "view",
      "type": "function"
    },
    {
      "inputs": [],
      "name": "pause",
      "outputs": [],
      "stateMutability": "nonpayable",
      "type": "function"
    },
    {
      "inputs": [],
      "name": "paused",
      "outputs": [
        {
          "internalType": "bool",
          "name": "",
          "type": "bool"
        }
      ],
      "stateMutability": "view",
      "type": "function"
    },
    {
      "inputs": [
        {
          "internalType": "bytes32",
          "name": "role",
          "type": "bytes32"
        },
        {
          "internalType": "address",
          "name": "callerConfirmation",
          "type": "address"
        }
      ],
      "name": "renounceRole",
      "outputs": [],
      "stateMutability": "nonpayable",
      "type": "function"
    },
    {
      "inputs": [
        {
          "internalType": "bytes32",
          "name": "role",
          "type": "bytes32"
        },
        {
          "internalType": "address",
          "name": "account",
          "type": "address"
        }
      ],
      "name": "revokeRole",
      "outputs": [],
      "stateMutability": "nonpayable",
      "type": "function"
    },
    {
      "inputs": [
        {
          "internalType": "bytes4",
          "name": "interfaceId",
          "type": "bytes4"
        }
      ],
      "name": "supportsInterface",
      "outputs": [
        {
          "internalType": "bool",
          "name": "",
          "type": "bool"
        }
      ],
      "stateMutability": "view",
      "type": "function"
    },
    {
      "inputs": [],
      "name": "symbol",
      "outputs": [
        {
          "internalType": "string",
          "name": "",
          "type": "string"
        }
      ],
      "stateMutability": "view",
      "type": "function"
    },
    {
      "inputs": [],
      "name": "totalSupply",
      "outputs": [
        {
          "internalType": "uint256",
          "name": "",
          "type": "uint256"
        }
      ],
      "stateMutability": "view",
      "type": "function"
    },
    {
      "inputs": [
        {
          "internalType": "address",
          "name": "to",
          "type": "address"
        },
        {
          "internalType": "uint256",
          "name": "value",
          "type": "uint256"
        }
      ],
      "name": "transfer",
      "outputs": [
        {
          "internalType": "bool",
          "name": "",
          "type": "bool"
        }
      ],
      "stateMutability": "nonpayable",
      "type": "function"
    },
    {
      "inputs": [
        {
          "internalType": "address",
          "name": "from",
          "type": "address"
        },
        {
          "internalType": "address",
          "name": "to",
          "type": "address"
        },
        {
          "internalType": "uint256",
          "name": "value",
          "type": "uint256"
        }
      ],
      "name": "transferFrom",
      "outputs": [
        {
          "internalType": "bool",
          "name": "",
          "type": "bool"
        }
      ],
      "stateMutability": "nonpayable",
      "type": "function"
    },
    {
      "inputs": [],
      "name": "unpause",
      "outputs": [],
      "stateMutability": "nonpayable",
      "type": "function"
    }
  ],
  "bytecode": "0x60a060405234801561000f575f5ffd5b5060405161169838038061169883398101604081905261002e91610446565b828585600361003d838261055a565b50600461004a828261055a565b505050805f036100745760405163392e1e2760e01b81525f60048201526024015b60405180910390fd5b6080526100815f336100f2565b506100ac7f9f2df0fed2c77648de5860a4cc508cd0818c85b8b8a1ab4ceeef8d981c8956a6336100f2565b506100d77f65d7a28e3265b37a6474929f336521b332c1681b933f6cb9f3376673440d862a336100f2565b5080156100e8576100e8828261019f565b5050505050610633565b5f8281526006602090815260408083206001600160a01b038516845290915281205460ff16610196575f8381526006602090815260408083206001600160a01b03861684529091529020805460ff1916600117905561014e3390565b6001600160a01b0316826001600160a01b0316847f2f8788117e7eff1d82e926ec794901d17c78024a50270940304540a733656f0d60405160405180910390a4506001610199565b505f5b92915050565b6001600160a01b0382166101c85760405163ec442f0560e01b81525f600482015260240161006b565b6101d35f83836101d7565b5050565b6101e28383836101e7565b505050565b6101ef6101fa565b6101e2838383610220565b60055460ff161561021e5760405163d93c066560e01b815260040160405180910390fd5b565b61022b838383610283565b6001600160a01b0383166101e2575f61024360805190565b90505f61024f60025490565b90508181111561027c5760405163279e7e1560e21b8152600481018290526024810183905260440161006b565b5050505050565b6001600160a01b0383166102ad578060025f8282546102a29190610614565b9091555061031d9050565b6001600160a01b0383165f90815260208190526040902054818110156102ff5760405163391434e360e21b81526001600160a01b0385166004820152602481018290526044810183905260640161006b565b6001600160a01b0384165f9081526020819052604090209082900390555b6001600160a01b03821661033957600280548290039055610357565b6001600160a01b0382165f9081526020819052604090208054820190555b816001600160a01b0316836001600160a01b03167fddf252ad1be2c89b69c2b068fc378daa952ba7f163c4a11628f55a4df523b3ef8360405161039c91815260200190565b60405180910390a3505050565b634e487b7160e01b5f52604160045260245ffd5b5f82601f8301126103cc575f5ffd5b81516001600160401b038111156103e5576103e56103a9565b604051601f8201601f19908116603f011681016001600160401b0381118282101715610413576104136103a9565b60405281815283820160200185101561042a575f5ffd5b8160208501602083015e5f918101602001919091529392505050565b5f5f5f5f5f60a0868803121561045a575f5ffd5b85516001600160401b0381111561046f575f5ffd5b61047b888289016103bd565b602088015190965090506001600160401b03811115610498575f5ffd5b6104a4888289016103bd565b60408801516060890151919650945090506001600160a01b03811681146104c9575f5ffd5b60809690960151949793965091949392915050565b600181811c908216806104f257607f821691505b60208210810361051057634e487b7160e01b5f52602260045260245ffd5b50919050565b601f8211156101e257805f5260205f20601f840160051c8101602085101561053b5750805b601f840160051c820191505b8181101561027c575f8155600101610547565b81516001600160401b03811115610573576105736103a9565b6105878161058184546104de565b84610516565b6020601f8211600181146105b9575f83156105a25750848201515b5f19600385901b1c1916600184901b17845561027c565b5f84815260208120601f198516915b828110156105e857878501518255602094850194600190920191016105c8565b508482101561060557868401515f19600387901b60f8161c191681555b50505050600190811b01905550565b8082018082111561019957634e487b7160e01b5f52601160045260245ffd5b60805161103f6106595f395f8181610248015281816106380152610c10015261103f5ff3fe608060405234801561000f575f5ffd5b5060043610610187575f3560e01c80635c975abb116100d957806395d89b4111610093578063d53913931161006e578063d539139314610343578063d547741f1461036a578063dd62ed3e1461037d578063e63ab1e9146103b5575f5ffd5b806395d89b4114610321578063a217fddf14610329578063a9059cbb14610330575f5ffd5b80635c975abb146102ad57806367243482146102b857806370a08231146102cb57806379cc6790146102f35780638456cb591461030657806391d148541461030e575f5ffd5b80632f2ff15d1161014457806336568abe1161011f57806336568abe1461026c5780633f4ba83a1461027f57806340c10f191461028757806342966c681461029a575f5ffd5b80632f2ff15d14610222578063313ce56714610237578063355274ea14610246575f5ffd5b806301ffc9a71461018b57806306fdde03146101b3578063095ea7b3146101c857806318160ddd146101db57806323b872dd146101ed578063248a9ca314610200575b5f5ffd5b61019e610199366004610d88565b6103dc565b60405190151581526020015b60405180910390f35b6101bb610412565b6040516101aa9190610db6565b61019e6101d6366004610e06565b6104a2565b6002545b6040519081526020016101aa565b61019e6101fb366004610e2e565b6104b9565b6101df61020e366004610e68565b5f9081526006602052604090206001015490565b610235610230366004610e7f565b6104dc565b005b604051601281526020016101aa565b7f00000000000000000000000000000000000000000000000000000000000000006101df565b61023561027a366004610e7f565b610506565b61023561053e565b610235610295366004610e06565b610573565b6102356102a8366004610e68565b6105a7565b60055460ff1661019e565b6102356102c6366004610ef1565b6105b1565b6101df6102d9366004610f5d565b6001600160a01b03165f9081526020819052604090205490565b610235610301366004610e06565b6106ee565b610235610707565b61019e61031c366004610e7f565b610739565b6101bb610763565b6101df5f81565b61019e61033e366004610e06565b610772565b6101df7f9f2df0fed2c77648de5860a4cc508cd0818c85b8b8a1ab4ceeef8d981c8956a681565b610235610378366004610e7f565b61077f565b6101df61038b366004610f76565b6001600160a01b039182165f90815260016020908152604080832093909416825291909152205490565b6101df7f65d7a28e3265b37a6474929f336521b332c1681b933f6cb9f3376673440d862a81565b5f6001600160e01b03198216637965db0b60e01b148061040c57506301ffc9a760e01b6001600160e01b03198316145b92915050565b60606003805461042190610f9e565b80601f016020809104026020016040519081016040528092919081815260200182805461044d90610f9e565b80156104985780601f1061046f57610100808354040283529160200191610498565b820191905f5260205f20905b81548152906001019060200180831161047b57829003601f168201915b5050505050905090565b5f336104af8185856107a3565b5060019392505050565b5f336104c68582856107b0565b6104d185858561082b565b506001949350505050565b5f828152600660205260409020600101546104f681610888565b6105008383610892565b50505050565b6001600160a01b038116331461052f5760405163334bd91960e11b815260040160405180910390fd5b6105398282610923565b505050565b7f65d7a28e3265b37a6474929f336521b332c1681b933f6cb9f3376673440d862a61056881610888565b61057061098e565b50565b7f9f2df0fed2c77648de5860a4cc508cd0818c85b8b8a1ab4ceeef8d981c8956a661059d81610888565b61053983836109e0565b6105703382610a14565b7f9f2df0fed2c77648de5860a4cc508cd0818c85b8b8a1ab4ceeef8d981c8956a66105db81610888565b8382146105fb5760405163512509d360e11b815260040160405180910390fd5b835f805b828110156106355785858281811061061957610619610fd6565b905060200201358261062b9190610fea565b91506001016105ff565b507f00000000000000000000000000000000000000000000000000000000000000008161066160025490565b61066b9190610fea565b111561068a5760405163a4875a4960e01b815260040160405180910390fd5b5f5b828110156106e4576106dc8888838181106106a9576106a9610fd6565b90506020020160208101906106be9190610f5d565b8787848181106106d0576106d0610fd6565b905060200201356109e0565b60010161068c565b5050505050505050565b6106f98233836107b0565b6107038282610a14565b5050565b7f65d7a28e3265b37a6474929f336521b332c1681b933f6cb9f3376673440d862a61073181610888565b610570610a48565b5f9182526006602090815260408084206001600160a01b0393909316845291905290205460ff1690565b60606004805461042190610f9e565b5f336104af81858561082b565b5f8281526006602052604090206001015461079981610888565b6105008383610923565b6105398383836001610a85565b6001600160a01b038381165f908152600160209081526040808320938616835292905220545f19811015610500578181101561081d57604051637dc7a0d960e11b81526001600160a01b038416600482015260248101829052604481018390526064015b60405180910390fd5b61050084848484035f610a85565b6001600160a01b03831661085457604051634b637e8f60e11b81525f6004820152602401610814565b6001600160a01b03821661087d5760405163ec442f0560e01b81525f6004820152602401610814565b610539838383610b57565b6105708133610b62565b5f61089d8383610739565b61091c575f8381526006602090815260408083206001600160a01b03861684529091529020805460ff191660011790556108d43390565b6001600160a01b0316826001600160a01b0316847f2f8788117e7eff1d82e926ec794901d17c78024a50270940304540a733656f0d60405160405180910390a450600161040c565b505f61040c565b5f61092e8383610739565b1561091c575f8381526006602090815260408083206001600160a01b0386168085529252808320805460ff1916905551339286917ff6391f5c32d9c69d2a47ea670b442974b53935d1edc7fd64eb21e047a839171b9190a450600161040c565b610996610b9b565b6005805460ff191690557f5db9ee0a495bf2e6ff9c91a7834c1ba4fdd244a5e8aa4e537bd38aeae4b073aa335b6040516001600160a01b03909116815260200160405180910390a1565b6001600160a01b038216610a095760405163ec442f0560e01b81525f6004820152602401610814565b6107035f8383610b57565b6001600160a01b038216610a3d57604051634b637e8f60e11b81525f6004820152602401610814565b610703825f83610b57565b610a50610bc0565b6005805460ff191660011790557f62e78cea01bee320cd4e420270b5ea74000d11b0c9f74754ebdbfc544b05a2586109c33390565b6001600160a01b038416610aae5760405163e602df0560e01b81525f6004820152602401610814565b6001600160a01b038316610ad757604051634a1406b160e11b81525f6004820152602401610814565b6001600160a01b038085165f908152600160209081526040808320938716835292905220829055801561050057826001600160a01b0316846001600160a01b03167f8c5be1e5ebec7d5bd14f71427d1e84f3dd0314c0f7b2291e5b200ac8c7c3b92584604051610b4991815260200190565b60405180910390a350505050565b610539838383610be4565b610b6c8282610739565b6107035760405163e2517d3f60e01b81526001600160a01b038216600482015260248101839052604401610814565b60055460ff16610bbe57604051638dfc202b60e01b815260040160405180910390fd5b565b60055460ff1615610bbe5760405163d93c066560e01b815260040160405180910390fd5b610bec610bc0565b610539838383610bfd838383610c62565b6001600160a01b038316610539576002547f00000000000000000000000000000000000000000000000000000000000000009081811115610c5b5760405163279e7e1560e21b81526004810182905260248101839052604401610814565b5050505050565b6001600160a01b038316610c8c578060025f828254610c819190610fea565b90915550610cfc9050565b6001600160a01b0383165f9081526020819052604090205481811015610cde5760405163391434e360e21b81526001600160a01b03851660048201526024810182905260448101839052606401610814565b6001600160a01b0384165f9081526020819052604090209082900390555b6001600160a01b038216610d1857600280548290039055610d36565b6001600160a01b0382165f9081526020819052604090208054820190555b816001600160a01b0316836001600160a01b03167fddf252ad1be2c89b69c2b068fc378daa952ba7f163c4a11628f55a4df523b3ef83604051610d7b91815260200190565b60405180910390a3505050565b5f60208284031215610d98575f5ffd5b81356001600160e01b031981168114610daf575f5ffd5b9392505050565b602081525f82518060208401528060208501604085015e5f604082850101526040601f19601f83011684010191505092915050565b80356001600160a01b0381168114610e01575f5ffd5b919050565b5f5f60408385031215610e17575f5ffd5b610e2083610deb565b946020939093013593505050565b5f5f5f60608486031215610e40575f5ffd5b610e4984610deb565b9250610e5760208501610deb565b929592945050506040919091013590565b5f60208284031215610e78575f5ffd5b5035919050565b5f5f60408385031215610e90575f5ffd5b82359150610ea060208401610deb565b90509250929050565b5f5f83601f840112610eb9575f5ffd5b50813567ffffffffffffffff811115610ed0575f5ffd5b6020830191508360208260051b8501011115610eea575f5ffd5b9250929050565b5f5f5f5f60408587031215610f04575f5ffd5b843567ffffffffffffffff811115610f1a575f5ffd5b610f2687828801610ea9565b909550935050602085013567ffffffffffffffff811115610f45575f5ffd5b610f5187828801610ea9565b95989497509550505050565b5f60208284031215610f6d575f5ffd5b610daf82610deb565b5f5f60408385031215610f87575f5ffd5b610f9083610deb565b9150610ea060208401610deb565b600181811c90821680610fb257607f821691505b602082108103610fd057634e487b7160e01b5f52602260045260245ffd5b50919050565b634e487b7160e01b5f52603260045260245ffd5b8082018082111561040c57634e487b7160e01b5f52601160045260245ffdfea2646970667358221220fe5d711f84264b890a16961818dd3713d495ddadbec95322d0f551bfa00b70c064736f6c634300081c0033",
  "linkReferences": {},
  "deployedLinkReferences": {},
  "immutableReferences": {
    "1164": [
      {
        "length": 32,
        "start": 584
      },
      {
        "length": 32,
        "start": 1592
      },
      {
        "length": 32,
        "start": 3088
      }
    ]
  },
  "inputSourceName": "project/contracts/CampusCreditV2.sol",
  "buildInfoId": "solc-0_8_28-83dc77bc693a6493a832cc3faf5805ea0f361a0b"
}